:100000000C945C230C9484230C9484230C948423FC
:100010000C9484230C9484230C9484230C948423C4
:100020000C9484230C9484230C94C8330C943334A0
:100030000C9484230C9484230C9484230C948423A4
:100040000C9484230C9484230C9484230C94842394
:100050000C9484230C9484230C9484230C940633F2
:100060000C9484230C9484230C9484230C94842374
:100070000C9484230C9484230C9484230C94842364
:100080000C9484230C9484230C9484230C94842354
:100090000C9484230C9484230C9484230C94842344
:1000A0000C9484230C9484230C9484231F298C2B7C
:1000B0008C2B8C2B8C2B8C2B39268C2B592A8C2B14
:1000C0008C2B8C2B8C2BA726BC26DA26EB26FC2629
:1000D0000D272C273827442750275C276E27802799
:1000E00092278C2B8C2B8C2B8C2B8C2B8C2B8C2B56
:1000F0008C2B8C2B8C2B8C2BA427AE27B827C227BC
:10010000CC27E027F4270828442858286C28802882
:100110009428942894289428A328AD28B728C12887
:10012000CB28E028F5280A298C2B8C2B8C2B8C2BA8
:100130008C2B8C2B8C2B1C28262830283A282729FE
:100140003F294A295E29992934267B29AA298C2B03
:10015000B329C729CB29CE298C2BD529DC29E42921
:10016000F529042A0A2A1F2A272A3C2A442AAC2CC9
:10017000B12CB62CBB2CC02CC52CCA2CCF2CD42C0B
:10018000D92CDE2CE32CE82CED2CF22CF72CFC2CBB
:1001900007634236B79BD8A71A39685618AEBAAB70
:1001A000558C1D3CB7CC5763BD6DEDFD753EF61704
:1001B0007231BF000000803F08000000BE92244959
:1001C000123EABAAAA2ABECDCCCC4C3E0000008089
:1001D000BEABAAAAAA3E00000000BF000000803FFC
:1001E0000000000000084178D3BB4387D1133D19BC
:1001F0000E3CC3BD4282AD2B3E68EC8276BED98FE9
:10020000E1A93E4C80EFFFBE01C4FF7F3F0000002C
:1002100000008A7F989EB1A6D8A1FEFEFEFEFEFEDB
:10022000BEF9307900000000000000002C029E6939
:10023000FAD4FEFEFEFEFEFECBEC5D9D002100002A
:10024000000000000C005029AE80FED9FEFEFEFE2C
:10025000FEFEECFEA7CE4F7B002100000000000058
:100260000000260E6841B995FEDEFEFEFEFEFEFE93
:10027000FEFED8F09AC14670002000000000000089
:10028000000014013C2A7350B796F2D1FEFEFEFE28
:10029000FEFEFEFEFAFECEE59EB95E7D1C39000034
:1002A0000000000000000000130237255947896E46
:1002B000BCA3E8D4FEFCFEFEFEFEFEFEFEFEEAFC53
:1002C000C2D5A0B2768D3E5A102500000000000075
:1002D000000000000F02291B46386153816FAB9567
:1002E000D1BFF1E2FEFEFEFEFEFEFEFEFEFEEDF9D9
:1002F000D6E2B6C59AA87E8D586C2D420C1B000024
:1003000000000000000000000A002015342A4D41C2
:100310006258776C9284B3A3D0C2E8DCFBF2FEFE95
:10032000FEFEFEFEFEFEF5FEE1EBCED7BCC6A4AFA0
:100330008F997B856370435424330D1800050000AA
:1003400000000000000008001C122E253F37514716
:10035000635AF5EFE9E1D9D0C6BBAFA3978C827A97
:10036000726BFEFBFEFEFEFEFDFEECF5DAE3C9D18C
:10037000BBC2AFB527313D49555F6870777E1E859A
:100380008D959DA712170A0D0608050607060C098C
:100390001710261E362E8D87817C77716C655E5610
:1003A0009B93514B453EACA4BCB5C9C3D4CFDCD85C
:1003B000E4E0EAE7EDECEAEBA0A4A8ADB2B7BDC378
:1003C000CAD0969CD6DDE2E6898F7E84757A6B7002
:1003D0005F6650583F483238282C22251F201E1EA9
:1003E0001F1E212025232C283832443E504A5A55BE
:1003F000625E6B6675707C7983808B87948FA09921
:10040000ABA5B6B1BEBAC5C2CBC8D0CDD3D2D3D3BB
:10041000D2D3CFD0C8CCC0C4B6BBA9ADB2A59EA222
:10042000989B93958A8F81857A7E73776D706469C6
:100430005A5F4D5442473A3E3537323331313131CC
:100440003332353439373F3B4742504C5955615D63
:1004500068646D6A75717B78817E86838B88928EE5
:100460009A96A39FABA7B1AEB7B4BBB9BFBDC1C08D
:10047000C1C1C0C0BFC0BDBEB8BBA7ABAEB2B5A402
:100480009DA1989B93968F918B8D83877D80787BA0
:1004900073766E71686B6064565B4D51474A434595
:1004A00041424040404042414342464449474F4C0C
:1004B00056525D59646069676E6C727078767D7BA8
:1004C0007F81858389878E8B94909B97A19EA6A41C
:1004D000AAA8AEACB1B0B4B3B4B4B3B3B3B3B2B210
:1004E000B0B1ACAFA7AAA2A49C9F979A93958F9105
:1004F0008C8E898B83867E817A7C767872746E701E
:10050000686B61655A5E545750524D4E4C4D4C4C81
:100510004C4C4E4D4F4E5150545359565F5C646293
:100520006A676E6C727075747A787E7C817F848263
:1005300087858A888F8C949299979E9CA1A0A5A369
:10054000A7A6A9A8AAAAAAAAA9A9A9A9A8A8A5A725
:10055000A2A49EA0999B959791938E8F8B8C898A4C
:10056000868881837D7F7A7B7778747570726B6EF5
:1005700065685F625B5D58595657555555555655D8
:10058000575658575A595D5B615E65636A686E6C71
:100590007270757377767B797E7D817F83828584A7
:1005A00088878C8A908E949298969B999D9C9F9E0A
:1005B000A1A0A2A2A2A2A2A2A1A1A1A19FA09C9E31
:1005C000999B959792938F908C8D898A8788868640
:1005D00082837E807B7D797A7678737570726B6E9C
:1005E000666962645F615D5E5D5D5D5D5D5D5E5D12
:1005F0005F5E605F6261656369677372706E6C6A8B
:10060000767578777B797D7C807E82818382868413
:1006100088878C8A8F8D9291959497969C9B9B9AB4
:1006200099989B9C9B9B9B9B9B9B9A9A989995972F
:1006300092948F918D8E8A8B8889868785867D7E20
:100640007F8182847B7C797A7678747570726C6E27
:10065000686A666764656363636363636363646452
:100660006A6968676665656B6E6D727074737776BC
:1006700079787A7A7D7C7F7E80808281848385848C
:10068000887FD17F7F538682B7588747765099F00D
:10069000FEEBFEFEFEFE1000007700ADF8FEF4FE5D
:1006A000D4A0BC8E7C7F671E00001100002375FE65
:1006B000D3FEFEFBFEFE004BAB00000000225DAB54
:1006C000A6FEE2FEFEBB64A1962F604E505F001CAA
:1006D0000071A1A667738B8DECE3C0DDC57EAF967C
:1006E000150000000000116F3580DEBCBAFEFDC7AA
:1006F000EC51ED6181512A3A25375B1C336D80AD99
:100700009AC7AF6788C7B39F85CAC982350B1222C3
:10071000112C342D055B65CAD7E8F7F97BAFEB8860
:100720008F756D0F9223434D5E596B656E9D7EAA4A
:10073000CCD0BC8AE1A3ADD0A7947F321E002F2479
:10074000542D172AB3367BA8C4BADFA3DCC7D56300
:1007500099FE91DC8372A356523E7B9678B48ACC84
:1007600067002D4B8E436080817A32701E40355A6F
:100770002098833987B73C61B4DA629FC08FCA7111
:10078000BD759F5764456057806D91B156B673C46F
:10079000C1788CDE6F659A9C61796C697850736A58
:1007A0008D71857F99668DBE7AA9B2B17F7C889460
:1007B000738B5247884592456D5E47AF88BA95C79F
:1007C0009FABD15B859878604779615D6C5E7C8872
:1007D00067666BAA77C252AE6EAF8C98A88A5B8FA1
:1007E0005D92774AC4578085A74C33749D5FBA9653
:1007F000BEAD68439DBB726D62925A505762C3642E
:100800004C6C8B91A4A4AC8A94946D59764EB95FCC
:100810002D7E64955E5E825D73884B8F47BDB16CA3
:10082000797F498E5CA882404F9022737D76505D1F
:10083000678E76815EA4A66284A07672688A1F762F
:100840006461826BBC85639F666A83809B8BADA667
:10085000AD95655A6C77A191736877955B7E979596
:10086000A8A08276A39AC182865F618383668D8AFF
:10087000544D467A8D8653937E478E80CB5CC1D390
:100880007F8A6A8D7AAA616E56997BC6427387B950
:10089000BF6C703A729AD58354896B717D585E93A0
:1008A00056803271A08181469D62885B5C80815A4E
:1008B0006660979B9B9B988C876E948B427F757A22
:1008C000C093A86E88999564827B7386917FA158A6
:1008D0006A34916951A4A06D7D94807FBF84FE1E0F
:1008E0000077006500006DEC0096000DF4B22694D0
:1008F000FEFED4E88BFEFE006A6EFE001A632E0038
:10090000FE75B99778E1FE880031CC453987C3E997
:10091000979683F783E462806B001E00AC724F767B
:10092000CB72D48B2F8ED8C004B4CF6C6E2C815474
:10093000E1717DD52EB773DA35D640664193254DEA
:100940008356CF6D4F7553C7A6ABA2836B906DA531
:100950006D14BC77A478B9808B6DA45A51589197C7
:100960008799B16C4EBE8C4C4E7E888E8A876455BA
:1009700054318E71BD877A908D6A4C48949C568D07
:10098000758375823A847E937B6C7495938E949074
:100990007C8D89857498718E8E70895F877471796A
:1009A000A38A6A8882728D968E997D8B90816A7CEB
:1009B000687D8B80758C716B7F8986617498848E5D
:1009C0007D7F877A8C6F8A7786968A847886838003
:1009D0008083898F817E7FE5005D504D73083C7C6C
:1009E0008C506E9AFE62789949810068F45182FEBB
:1009F0008B80FE8ED0A54E6C695E009CEF775C000C
:100A0000FEABB00421FE7A3D9EFEC0899F8D00643E
:100A1000A86957259C91BDD77A625A22D79400FEC7
:100A20007784B77E209224568A8F8F95768D00A585
:100A3000FEA88198FEB18B9EEF786740BD9E595B02
:100A4000005E9FDA61008500D155F595467DCB7E2D
:100A50007962652D0000619D004A326EA3B9096775
:100A6000B100FC57F4FE510034E3FC3772B0884B00
:100A70006700E8BE722F0FFEB37A6DD1C3D284999E
:100A80007B774783CDBB84C232C35552A0EF80141D
:100A900078D51F99188CFEB5BA6753B8789053254E
:100AA0008E537E6A4761AA41C0587DA68F6A33D6AD
:100AB000801D009E2CB779694293C0BEB8A9E16E33
:100AC000DEB2C73A9FCC70A755839ECBC8985F799A
:100AD000CA7191849327B3A8C22C89964BA2256929
:100AE000AB9B588D4A6D977385426133974D7F5606
:100AF0008C7784A1C5A16960727D879A816C873BE0
:100B00006F80505E9CABA0517E989D22C4779777F2
:100B10002F8286BA738CA1B8709B86959F73768A54
:100B20006DA0687485697F85938D8890828D84B36C
:100B30006B7E6D7F736D305E838A69A2C16581674C
:100B40008BCA735A68AC456582909E828B718F9078
:100B500065758585BA7D93A5AE8C557F74BE3C6165
:100B60005F80817394A8C38C877FA0847557917E22
:100B70007A65757E5E7B8376917A6C838D96886CC0
:100B80009B898B7AA29389696D64A198764D6D8B50
:100B900077926B4C826988658A7D7F947B71808FA8
:100BA0006A807994729381817D927D957A878F8E08
:100BB0009B7F58B0827E897C6E7B7F5D805B718479
:100BC000796F7D886F9D828174708D64606D619591
:100BD0008D8D9A7579807F749174899D82858B81C2
:100BE000718A7F7E9D5E8B7E8182808C5486948606
:100BF000666C7F94706B7A87867D657E9E82997124
:100C0000858274836C707C7A718575827B93806534
:100C1000846F8176795B80807B7E748F8A82718F0E
:100C20008D7B6F5D9C69957B878A83818390687CCF
:100C3000717B828B86857A7E8C998F776C807984A4
:100C40007B8A8B82847F8B8476887E7C8C736A72AD
:100C500067747D786E957D70918F8E7A6D787069EE
:100C60008E8F808E8A697E7A6D81798884768C9366
:100C700072898170917262848785829787918C7363
:100C80007882747C75818A6D827D80898558788FA1
:100C90007F828C977B9379767E836F7B829977882E
:100CA0007F83997F848B846E8D7571826F7C7C8944
:100CB0006B917F69757D807D856E6D8987807A8572
:100CC000698D748B7A80848F836E6F77787A707376
:100CD00083747B8E8073808B81867B7A86897C810E
:100CE0007F817D7A83847D8271859184867D897FF1
:100CF000816F7D6F76888686816E7D827E836E8928
:100D00007B8E7F7E82817D828871787F88847A82E3
:100D10007C7E85897F838581877D667C7E81776BFC
:100D20007A8082837681807E8289807D7F748B80C9
:100D30007A797D81807B8A79807E7486807D7B7CD8
:100D40007E877B7A7F7F69728387847F828B8871BD
:100D50007D85877F8E787B81788280898979827E84
:100D6000847C7F757F717C847F7B767A886B7F7EC5
:100D7000797F79828C7A79778485837E808C7F787D
:100D8000837F87707D81808172838A8183807B7F6E
:100D90007E778387827682808588767983877E8650
:100DA000897A76817C767281788781858383827F58
:100DB0007F86807F83807D7B75817F837D8783882D
:100DC000797F817B79776D7B7F818183897E7B745D
:100DD0007B82857E7B817F7D7A7480837E7B7F773B
:100DE0008884837F7A8480807D7985817F7F8480F9
:100DF0007A7F7F7B787E8B847D7C85817D7B827E04
:100E000077817A80857D7C777D7D75737F87847C13
:100E1000877E7C7E7B777B8477788081837F807FF1
:100E2000847B7C7F83827A7E8081797F80848087C7
:100E30007F807D7A717F7C7F817E83817B79837ED9
:100E40007D80778082847F827F807F81747D7F81B7
:100E5000817C7D797D7F837F7D7E7E7E847F7D7CAE
:100E60007F817D84807F827F817B7F827B7E7E7D90
:100E70008082807C827E7C7C8182807B7D79827B8B
:100E80007B837E7E82837FD1827FE1B0FEF5EAD9CB
:100E9000C1CDA5AAA4AECBB0FEFEEEFAB9D68F9B0B
:100EA0007C877C857C778A848E829C92C9B0FAECA0
:100EB000F5F5C3D39BC53F7B06240B0A0000000059
:100EC00000000400110023203C304247544E5D5C7A
:100ED0009279BFB9B3C1CFBFE9D9FEFEFEFED8EE0D
:100EE000B5CB93A276798460606562635F61646468
:100EF0006967636670638E808D91748B3C533D3C53
:100F00003B37333B332A45423E494B465B5265589B
:100F10007770827A88888D8C9592A499C9B0FAE30B
:100F2000FEFEFEFEFEFEFEFEE4F5CFD8ADBF98A7A6
:100F30007F8B7177616C5B5C5A5A5355484B3A42D0
:100F40002B34212120222B2234342C312E2B3B32E6
:100F5000403A4A46524D5256565553575856605C81
:100F60006C6676717F7B9A8BB9A8D1C4E8DFFEF7F7
:100F7000FAFEF1F7E2EAD3DACBCDC2C9B8BFAFB51A
:100F8000ADAF9DA491968289787C67705A5E4A5174
:100F90003D42373A3534343440374D465D56615C16
:100FA000696369676D6A6B6B6C686E6E6A6D6868A1
:100FB00066666A657B729086A69BB6ACC1BCBEC0F5
:100FC000B1B8AAACA6A7A4A59EA096998C92858A32
:100FD0007D817C7C757A6F71646C575E47523F42AD
:100FE000383A363736363B3849423E5951627A7282
:100FF0006A828E8896939F9C98A19C9C9D9EA0A19E
:10100000A1A2A19DA49FB8B1AABEC9C2D2CED0D37D
:10101000C5CBB7BEACB29EA2A699939780838589B3
:101020008A8D90767B736D706268565D49503A4147
:101030002D3326292123202025222E283B345C58BD
:10104000534D484164606B68726F79757F7C838112
:10105000878489878F8B9A93A8A2B5AFC0BCC8C478
:10106000B6BABEC3C7CBCBB4B0B2ACAEA9AAABA71D
:10107000A2A4A0A19D9F9B9A93968C918488777D32
:1010800069705052575C614D4A4B474949484F4C33
:1010900056525D5A636065676B696E6D716F7574EA
:1010A000737677767A797878777D8781918C9B963D
:1010B000A4A0ACABA7AAA4A79F9C94988F928C8D58
:1010C0008A898785827C7D7E80817B78797A777238
:1010D00074757063676C5F585B5456525352515528
:1010E00058535C66616F6B74817E7A778684898BD6
:1010F0008D8F92919393939293929293929995A1BB
:101100009DAAA6B1AEB8B4BABAB8ACB0B5A3A79B05
:101110009E9497918E8C898386817E7C7A78777570
:1011200073716E69666C635A5F51554A4D48464506
:101130004545454745504C49545C58636066696E67
:101140006C72707FEC8B7FECEEEFE5FEFEFEFEBE78
:10115000DBABB2A79DDDA0F7FE4F82232E00122944
:101160001C000000000078FEFEFEFEFEFEAFE473F1
:10117000815D6258620000510A644E6E6964754573
:101180004AFEF4F5F8D094583BFEFEDCF1A1BF3CDA
:101190007100070000000000005731695D7B69ADF8
:1011A00099F0D8DFEFF7F7F5F6DED8E1ED99C25404
:1011B00076163700000000060313064C2DB080FEA3
:1011C000DBFDFED7E77A7F838BA0BA566E49455880
:1011D00054595767625D6653565E548F6DE0B7FE93
:1011E000FEFEFEE1F7AAC42845627A910E000000D7
:1011F00000080034254B445B527766B38DFEDBFE5E
:10120000FEFEFEF4FEE9EDCDDC3856779BBA1A00FF
:101210000400000501120A35215A479E76DDBAE026
:10122000E9C7D1B3BCA0A9959B9090808A666F4F07
:1012300059534F515353515E586F669C7FE1BDF730
:10124000FCD4E7B0C08CA16E7A5A63394E152306E0
:101250000A1E0D352A47415A5175679C84E2C0FE2B
:10126000FEFEFEF6FEE5EFC3D1A8B78499456517EB
:101270002D00050500120B261A4336594D866AB912
:10128000A2D5CFC9D2C0C4B1B9AEAFB1B0A0AE770C
:101290008C516347494B49514E5B556660756CA054
:1012A00088C3B3C7CDAFBA9BA5868F7B806F7654BA
:1012B000653442262B2E264037544A6D6083779E34
:1012C00090C5B1EAD9F2F5E5ECD0DAB6C3A0AB88A7
:1012D000955C772C420F1B0E0A1E153329473D588B
:1012E0004F6B60927DBBA7CCCAC5C9C1C2BEC0BD91
:1012F000BDB4BA94A8697D4D5A46464E4956525ED1
:101300005967636F6B8577A092AEADA4AA9A9E9041
:1013100096878C7D826C764F5C3D443D39504665A6
:101320005B796F8982918EA698C5B5DAD3CFD7BE87
:10133000C6ADB79AA485906978425527331F202FF0
:101340002640384E475C5568627C709F8DBFB0C6A2
:10135000C5C6C6C5C5BEC3B0B79DA77D8F5E6C4B65
:10136000534D4A55515B58605D616165627D6F9870
:101370008AA6A3A1A49B9E93988A8E8387747D5B83
:10138000664F53564F6F675E767E7B838188859963
:101390008EB0A5C1BBB9BFADB3959FA68A79816850
:1013A000714D5B3C433838433D554F495A65606F3A
:1013B0006A7D74998AB8A8C5C2C4C5BEC2B0B8A2B5
:1013C000A9959C5B5A5A5957555251545B5D5C64C0
:1013D000707F8C625F74698E81A29BA1A39C9E9694
:1013E000998F92888C7A787775726F696463657C5F
:1013F000696F788085807E87839990AAA2ADAFA817
:101400007F7FD18400736450C2CE66268B6C3E5EB3
:1014100078B86B8F8AE146689A687B965C698F82A0
:101420009387738F7052848F7F867780877B7D7AD6
:101430007A818B7D797B837587817991706B947EBE
:10144000758800B3FEC290BA2B00FE6344566ABB97
:10145000B996527CC9CD5869E4485FA778669980EF
:101460005B9D7373936A847E917E7B79717C978197
:10147000647C7A70878B787F7B8882787E7F7C7DA6
:1014800086916F798072EF865FEA6E048553C3831D
:10149000B26D321FBC69CB7B61B3445D95752DA2E3
:1014A00087AE73578D56AD944F5DA979759D7F704A
:1014B000887F888D0000F884238D1F5F57D1A33467
:1014C000936F92A70079AD8DB27E195CFD5B0A988F
:1014D0008A9F91404B73A987932E96B07B56FE72DC
:1014E0004A905F4CA7AABE555167AAB1754C507B74
:1014F00057A3AE7737EF667ABB3C74CD4C32816B25
:101500009AC5404F8F92556E8C938C66789A7B74F7
:10151000536E9153ACA8844BB75F5F8B798B71C8C6
:101520007652986B7B9E7E3781AD638D85586CB605
:1015300091684C848F8299A3707B7661A9C84A54C4
:10154000AD4E7E8C627E8C858B69986AAE706D6ABA
:101550006F7382629A916876AD925E84B4594B83C0
:101560009F6E8280A1706F7664849E7E79906756AC
:10157000A07C60977956AAA3626F897778757A7A8A
:101580007C7F9587758C596996618D9B807C6F7483
:101590008D8B8A7C63838372858888797678819540
:1015A000776F927D758993806978786F9092777C58
:1015B0008A80728E80768477867A8075847A7D8B35
:1015C0007B7F7E7F7F7F7F8080617E96989D836317
:1015D00053524C7B5080A0220014000000000000F9
:1015E000000011549BE8FFFFFFFFFFFFFFFFFFFF1D
:1015F000FFFFE0FFE3E3E2D1D490614C2A11000049
:1016000000000000000000000000000000000000DA
:101610000000000000001023517D9192AEC7CEEC77
:10162000FFFFFFFFFFFFFFFFF0DFCFBEB0A39F8DE7
:10163000948C8984949EA3A6A29D91776142362AB8
:10164000230D0D19241D2631294C4D5E6D6A828CA7
:1016500091A3B5C1CDD6D3DDD6EFEBF2F5FFF8F50A
:10166000FAF6F0F5F7F7FCF0E9EAEFF0DAD2C2B8F3
:1016700093866D5544482D21180900000000000094
:101680000100000000061024374454596776808B0F
:10169000949CABAEB1BFBDC5CFCDCBCFD3D7E0EA25
:1016A000E9FAF5FCFFFFFFFFFFFFFFFFFFFFF2E698
:1016B000D5BCADA28D827D776F6E66645D5450435C
:1016C0003E3D3A2C2F2D272C252227272A2E374026
:1016D0004C5B61727B7E8C9694A4ABB3C3C5CFD5B3
:1016E000D7DAD8D9D6D3C5C0B7AF9C9F9C9498936E
:1016F0008F8F93898886827B76695A52493F372A31
:1017000020140C0C04010200000000000004141559
:101710001E272B38464A535A63676B7C86919BA8D9
:10172000AFB6BBBBBCC0C2C2BFC0C1BCC3C9CBD2B9
:10173000D1D1CFC9C4C0B4B2ADA7A09997929394A8
:10174000918B837A6D604B4238353431303132348D
:10175000373838373A3E40484F565E6C78858A9223
:10176000969AA3A4A7ACB4BEC7D0D1DEE4ECF5F63C
:10177000F5F7F8F4F4EAE5E2D9D4D1C7C3BBB8B0C1
:10178000A99D978E867D77706C69625E5D564E4C22
:10179000483F3C34323435353434353636383739D1
:1017A000404B51585E697279828A939BA4A8AEB56A
:1017B000B9BEC6CBD1D7DBDCDEDAD6D5D5D1CAC22D
:1017C000BFB9B1AFA8A6A59F9B928A8581776F68A4
:1017D000665F5A59534F4B4B42403D3730302E2CA9
:1017E0002F2E2F35393C40454B52545960686E7648
:1017F0007C81888E939AA1A6AEB5B8BABCBDBFC293
:10180000C1C2C1BEBDBCB9B8B5B3B0ACA7A39D94AD
:101810008D88817B756F6C6A68645E5B59524F4B33
:101820004645413E3D3B3C3E3F414244434546499F
:101830004C5052575C62686C72797E84878C9195AB
:10184000989EA2A5A9ACAFB4B5B8B9B9B9BAB7B5A5
:10185000B4B0AAA5A09E99958F8A847F79736F6C86
:10186000696664615E5C5A585654514F4D4D4C4BFD
:101870004C4E4E4E4D4E4F5155575A5E62666A6EF3
:1018800073777C7F8285888A8D8F929597999B9DAF
:101890009FA0A2A5A6A6A6A6A6A6A5A3A29F9C9920
:1018A00095918E8A87847F7C797673706E6C696679
:1018B0006261605E5D5C5959585858585859595979
:1018C000595B5E616467696C6E7174777B7E81853C
:1018D000888B8E929596999B9C9B9B9A9A9A9A9BA1
:1018E0009C9D9FA0A1A1A09F9C9996938F8C898776
:1018F00084817E7B797674706C69676462616060F4
:1019000060605F5F5F60606163646567686A6C6E9A
:101910006F7173757677797A7C7F8185888A8C8FF1
:101920009293959595969696969696979798989958
:101930009999989694918E8C8A878582807E7C7AFC
:10194000787573716F6D6B6A6968676665666667DF
:101950006767676767686A6B6C6D6E6F70727476C5
:10196000797B7E818486888A8D8E909192929393E2
:1019700094949595959493939291908F8F8E8C8B50
:101980008B8A8887868483817E7C7A797776747265
:1019900071706F6E6D6C6B6A6A6A696A6A6A6B6B8A
:1019A0006C6C6D6E7071747677797B7D7F808183CE
:1019B000848687888A8B8B8C8D8D8E8F909090906B
:1019C000908F8E8E8D8D8C8C8B8B8A898887868468
:1019D00083817F7D7C7A797776757473727170708C
:1019E0006F6F6E6E6D6D6D6D6E6E6F707172747502
:1019F000767778797A7B7C7D7E7F81828384868707
:101A000088898A8B8B8C8D8D8D8E8E8E8E8D8C8C15
:101A10008B8A8A8887868584838281807F7E7D7C8D
:101A20007B7A797877767675757474747474737359
:101A30007372727272727273737475767778797A60
:101A40007B7C7D7E7F808283848485868788898A6B
:101A50008A8B8B8B8B8B8B8B8B8A8A8988888787E9
:101A600086858483838281807F7F7E7D7C7B7A7A7A
:101A7000797877777F7F7E7F7F8892004238FFFF7B
:101A8000102BAE00815CFFFFFF8B005C55000085D2
:101A9000DBE8BA8695007AB5D20C0000270000007A
:101AA00040000071D3A9C0FFFFFDCB8F0500231DAF
:101AB000000440FFFFFFECEAFFFFBABE713266444C
:101AC000207F3FFFFFF4862E5E667DC8FAFFFFDDB4
:101AD0008D2802325F6DF4FFFBFFA08074C1618826
:101AE000CCD99677842B7DB5E1B278A67292393C39
:101AF00072DDFFDDD5626D597F4F5F75ACD5A67085
:101B000070284E94C1D378C279848D8D33967451E8
:101B100028376092CCE195637E448F6D6C4CB06D3C
:101B200097A58AA992858C804B145E65736E874B4E
:101B3000837D7B7DBDE6D2CD8D6A51433400324238
:101B400048393D837EBEF0E28DA56B501E54463B66
:101B500019494F73B3877C7BDCA16C6A96797B63F0
:101B600028346A865677716F7E7F6B9CA6975E508D
:101B70003737161B8CB7BED6BE6C5A73393D47211A
:101B80005772527589968F9A857990A8A2A3AA5AFE
:101B900060553639522B43594766BDD8D3A8936751
:101BA0005D6D75824C754953499698796E5A297EB8
:101BB0006649899BD2C3DDB59D7392436540354923
:101BC0002F6454737EC2BC8290725897AB85C3AAAF
:101BD00094534D00454A42B17E8891A6CA869B76B1
:101BE0008A899AA9988443575B485879804A5968EA
:101BF0006685BAB3BBCBB89FB9AC622A3634364CD3
:101C0000696B7E707F8394A3BBD1ACA98D80606328
:101C100064688C6C7F385D58758D939685BBAF94E6
:101C2000888D83A08D8B7DA16D6A441F596C667869
:101C3000909781BAAC92957880A581537351857243
:101C400073646961BCCA927145727B8E90B7CC7C1B
:101C50006C6F7E5C8462645C936C96B396688680DD
:101C6000849A92BCA4767F888E5F7F726D773128CC
:101C70002B638E9E98B1ADD49DA99AA7918F684F82
:101C800033292B4D6879C4B0D4A2A5A4989A8E6448
:101C90007186867B64466A6B5F7393A590958E947C
:101CA000BBA8A89A6A492457717E80849598839826
:101CB000B6B89E9C8060636F5F807A875E8CA8A6B2
:101CC00094B37C546676789C91757A978F928B9CAE
:101CD000838662556F71738D7F6C6B758092A6AB36
:101CE000BD9F886B535B6F8560684D608689A19A44
:101CF000C0A4BBA0796A876D6C544559818E6D87ED
:101D000098A69F8A857670786B5B8595868F9D8374
:101D100078817B736C76657F9498A889887E7D7CBA
:101D20007F7F7E7E887777657982816F82817C7EF6
:101D3000878D8E9AA58B7C696D6F838B84716A7297
:101D4000707F8196928A889D9B8F85807B68736562
:101D5000705E67788E807A7F939BA0AD9C8B7E6C43
:101D6000727C7895807E6C6350525F7384ABB9ACA3
:101D7000898D8C98957C6353524A7372808B948DB5
:101D8000848A878399A68F867C727D7F6D7A797627
:101D900074787579827F93938F95937F7971737738
:101DA000767D74717C838B9C91837B6F6B6C827C62
:101DB00079878A85969FA89A76666574766F77701C
:101DC0007271737B8A8C99A397959B8E7D767371C4
:101DD0006C5F535F77747D878C93909E9693948C01
:101DE000817978686C6C74777F7B82807F868A7B50
:101DF000839191918D85847F7778796D75706D6809
:101E000071798E99A39B919186828581746F6457B5
:101E10005C6A818C9EA78891937A7B7270747077CC
:101E2000807B85828489828A89858278696A6B7ED3
:101E3000817D7E869594979A907F757669626668B3
:101E40006D7782808CA092918A86898C86907C693D
:101E5000605B5961707A7E909B979793918A8274A8
:101E600075717B6C6B6B6F7B80888F928B8888849D
:101E70007F7D83817A706F72727580879695958B5E
:101E8000847A7878737477737C82788586858E8E71
:101E90008280737C82827F777E767778797675828E
:101EA0008483848C8C8A86787D7A787776797B7B3C
:101EB0007D7B7A7C80828381898D86877D7C7E7E16
:101EC00086847F796F6D6F737B7F84888D8A80892C
:101ED0008E878587847C7A6F6C7A767A7872757F44
:101EE0008283858D86908A87817F7D7A81797873D8
:101EF000736F6E72787D818D928F8E8E89827D73E5
:101F000076747671747A7C84848184827F848686F8
:101F10008788817B74747A73727D888587857B77E7
:101F200078798183867F7F7F7F7F7F7F7F7F7F7FC1
:101F30007F7F7F7F7F7F7F7F7F7F7F7F7F7F7F7FB1
:101F40007F7F7F7F7F7F7F7F7F7F7F7F7F7F7F7FA1
:101F50007F7F7F7F7F7F7F7F7F7F7F7F7F7F7F7F91
:101F60007F7F7F7F7F7F7F7F7F7F808080807F7F7D
:101F7000807F7F7F7F7F7F7F7F7F7F7F7F7F7F7F70
:101F80007F7F7F7E7F7E7E7E7E7E7E7E7F7E7E7F6B
:101F90007E7F7F7F7F7F7F7F7F7F7F7F7F7F808050
:101FA00080808080808180818180808080807F7E31
:101FB0007F7E7F7F7F7F7F807F7E7D7A7A7C7A7D48
:101FC0007F7B7F818280827F7E807C7E7E7B7F7F25
:101FD000818081807A6479829C78628EC2758091DA
:101FE0007F828878673A22173F68584D7B8AB7937B
:101FF0009DDEAAB6ECFE67DEE7C07B84A255381DE5
:102000004502091F414215387663618B989BA8DC15
:10201000CFC4959C8E819AA184848E977B9C9B9B38
:102020008880B6619164573F1D3C2A311B2E47437F
:102030004A6478777FAAACABB0D7E1BDC0C9D5C13F
:10204000B1A99F958477695C4D473D403E32343855
:102050003234435059616A70787D9198A4AEBABE0B
:10206000C3C7D4D9C5BCB3A8A0948E8675524B4EB5
:102070003E354248536370788284868C8E948A8978
:102080008A86827F7C7672736F6D6F73767A7E7DBF
:102090007E7E82817F84888C8C8D8B8988868481EA
:1020A0008283848383828482837F7C7D7B7A7D7B31
:1020B00075736F70737479858A8C8D9094939394F3
:1020C00095989391908E89827F787575707364640A
:1020D000635E5E5E646D7277787A7D7C80828587D0
:1020E000888A8C8B88898A898886888381807B7995
:1020F0007372767A7E7F83818281828484878989E4
:102100008A8A89888987848784837F7C77737374BC
:10211000757B838582817F807E80828182807F80C3
:102120007D807E7F817D81807C76726F72777D84F9
:10213000878785838384858586878480817F7F8068
:102140007D827F827D77716C6F737B838B8E8A86B5
:1021500086878887888784807D7F80818281807F51
:10216000776D66696E7176808688858387888885B5
:1021700082807D7C7D83888B898885807668686E87
:1021800071737C858A8987898B88817A7976767A5A
:10219000828B8F8E8C8A857B6C676D737578879048
:1021A000918E8B89867C747173767A8691928D8AF2
:1021B00087827D71646D7073798A918F8882828243
:1021C0007A716D7277808E96908A817F818278682D
:1021D0006E737685908E88817F80837B716F74812A
:1021E0008E908B827D7D7F807E746970737D8B8500
:1021F000807E7F838280757175838D8A82808282E2
:10220000827D797B766C6F778584807F8180817F0A
:102210007C71747F89857F7F84807E7C7B7E8078E3
:1022200068707688857D7D82818581786D76898BE1
:102230007E7C8189847F7A7780887D656D788F7FC9
:10224000757B8287897B706F7F8D84797B8989829A
:102250007B777D8B8C7C686F7C8B7776818D8F8193
:10226000766D7E8A847A7B898F827D767F8989816B
:10227000796C728283777A8B8F887B7A7384807C87
:102280007D8A89847F7F7C8284838684746E7E804D
:102290007E75888A88817B7381847F7C878780852F
:1022A0007B7C7E7F7F85877A667281817182888D53
:1022B0008674798084747A888781807B827B7E793A
:1022C0008988786B6F877873768E8F81757E81862B
:1022D0006A7A8A89787D86817C767B89817D766B36
:1022E000747D757090857E7F7E857A7971898A7A12
:1022F0007F8B837F768182827C827B647A7A787519
:10230000897E817F7B81796D7C858377848A7D78E6
:102310007D82817984816D6A8A7572798C81817BF5
:10232000877A78708C817B7E8B847A7A857A7A7DC5
:10233000857A67738E676F8A84807D8586737882DD
:1023400082797B8F807E80857C7982847A7D6B79AF
:102350008865759773887D8C7B7B7D827381818690
:102360007A87847F7E7F807D7E8369748B68779196
:10237000758A7C8F7B7B7E7D768481818786868152
:10238000857E8084817E6E728E677D8F7389818F5A
:102390007A7E817B74827F798887847D8B7F7E7F44
:1023A000807E736F95687D8F768883927687827C36
:1023B0007680827589877C878E7B7C84807B7B6B33
:1023C000887272877F81858E7C8B7D7C767D83721F
:1023D00081897B878C7D8484847A82726E8D688209
:1023E00082728A8688828782747C82717C827B7FFB
:1023F00085857F8A817B847D68807769847C748908
:102400008E7D8B8482798279727C787684827E8AD2
:10241000838583847867886C6B83707B86887D90E6
:10242000857C848072787772797E7B838A818983C8
:102430007B7D6D8767747D6D818180858E868689C1
:102440007C7B8072757A777A817F80847D817A77D0
:102450007F697E747281797B8B8185888685847F94
:102460007C7A7E787C7C7A7F7D7C7E836F867877B1
:1024700081787983797F818084857F81817D817E68
:10248000797E7E7E807C79846E86797684777B8681
:102490007A82848086837D867E7F807A7B807E813F
:1024A000807D7A8673817E72837879857982857E54
:1024B00084857E87817D857C7D847F80827C7D8311
:1024C00077827D7585797C877883837C86807C851F
:1024D0007D7E817E81827E82807D807C8178817C10
:1024E0007E837B83807E867F7E827C81807D827FEF
:1024F0007E83807F7F7E817D7C7F7C7E807D8181ED
:102500007F82807E7F7F7E7C7F7E7D7F7D7C81CC95
:10251000FE3F197B51669C96B44846775B6E976A7E
:1025200077838E7079816DA9997D6D7364727DA9B1
:10253000887673736C8582867D79878B80776D72E0
:10254000828584837D7D827D7C7E807F7C7C828091
:102550007E807F82827E7C787C8081808285817C87
:102560007A797A7D8384827CB95E407D96C1A88920
:102570006847625B8098908E6D8A8E75708A8A7DBE
:10258000746F969E81706C6D79998F89736E868158
:102590007D8584867C7B817C79838483777F82843C
:1025A000837F7D7E7F7D7F8185837E797C7C7F823A
:1025B000827F7F7E80817F7D7E7F7E7F7F7E7E7F2C
:1025C00082827F7E7D7D7D7E8080897993777B7816
:1025D0007F70847C8180887682847378847C827921
:1025E0007C84847C7E797B8280808582737E8A7DF8
:1025F0007A7D7B78808181847E7A79797F83837EFE
:102600007D7C7B7E7D7F7F7F7C7E7276788B8C88E5
:102610007373817C8287728477807D7F797B877FEB
:1026200072717178838E7C7F7E7271787F8C757EFB
:102630006F867D787E83837B7C72818282797F85C1
:102640007B8077747D7E7C837E7C767A767B7F83CD
:10265000787885787C7A80828179747C7D73847EB9
:10266000797E787D8480747E7D78778189847C789A
:10267000767878817B847D807979747E7F7D7D7AA0
:102680007C837E777B807D847B7B837B7B7B807977
:10269000807E7E817D787E7A7D827E7C7C7D7D825F
:1026A000807C777B7D7E7E82817D7A787E7E817D57
:1026B0007E7F7C7E7C7E827F7E7D7E817E7B797E3E
:1026C0007F7D82807D7C7C7B7D7E83857F7B7B7B29
:1026D0007B81817E7E7F817C7E7E7F7D807D7D8013
:1026E000807D827F7D7D807D7F7B7F7D80807E7E03
:1026F0007B7E8182807E7C7B7F82807C7A7D7E80F7
:102700007D7E7F7E82807F7D7E7C7E7F8182807EDB
:102710007D7B7C7F7F81827E7C7C7C7F8182807DD3
:102720007D7C7E807F7D7E7E7E807E7E7F7F8080C2
:10273000807F7F7D7B7C7D80817F7F7F7E7E7E7EB4
:102740007E8081807F7F807E7C7D7F7F7F807F7E9B
:102750007F7E7E7E7F807F7E7E7E7E7F81807E7E8E
:102760007F807F7D7E7C7D7E808180807E7E7F7F7E
:1027700080807E7D7F7F7E7E7F7F7F7F7E7E7F7E6F
:102780007E80807F7E7F7E7F7F7F7F7E7E7F807E5C
:102790007F7F7F7F7F7E7E7E8081807E7E7F807E4A
:1027A0007D7E7E7F80818081807F7D7C7E7E7F7F3D
:1027B0007F80807F7E7F7E7F7F80807F7E7D7F8029
:1027C0007F7E7F7F80807F7F7E7F7E7F81807F7F17
:1027D0007F80807F7E7E7E7F7F807F7E80807E7E0A
:1027E0007F80807F7E7F7F7E7F7F80807F7E7E7EFA
:1027F0007F80807F7F7E7F8080807F7D7E7E7F80E8
:1028000080807F7E7F7F7F7F7F7E7F7E7E7F8080D8
:102810007F7E7E7F8080807F7F7E7E7E7E7F7F7FCB
:102820007F80807F7E7F7E7F80817F7F7E7D7E7FB9
:1028300080807F7E7E7E7F7F81807E7E7E7F807FA8
:102840007E7E7E7F80807F7E7F7F7F7F7F7E7E7E9D
:102850007F7F807F7F7F7F7F7F7F7F7F7F7F7F7F87
:102860007F7F7F807F7E7E7E7E7F7F80807E7E7F7B
:102870007F7F7F807F7F7F7F7F7F7F7F7F80807F65
:102880007E7D7E7E7F7F807F7F7F807F80807F7F59
:102890007E7D7D7E7F80807F7E7E7E80807F807F4C
:1028A0007F7E7E7E7F807F807F7E7E7F7F80808038
:1028B0007F7E7E7E7F7F7F807F7E7E7F7F80818127
:1028C0007F7E7D7E7E7F807F7E7E7E7F7F7F7F7F1F
:1028D0007F7F7F808080807E7E7E7E7F8080807F05
:1028E0007E7E7F7F7F80807F7F7F7F7F7F7E7E7FFA
:1028F0007F7F8080807F7F7F7F81817F7D7D7D7EE8
:102900007F8080807F7F7E7E7F7F7F7F8081807FD2
:102910007E7D7E7F808080807F7E7E7F7F7F8080C7
:102920007F7F7F7F7F80807F7F7E7E7F7F7F7F80B6
:10293000807F7E7E7E7F80807F7F7F7F80807F7EA6
:102940007D7E7F80808080807F7E7D7E7E7F808197
:10295000807F7F7F7F80807F7F807F7E7F7E7E7F86
:102960008080807F7F7F7F7F80807F7F7F7F7F7F72
:1029700080807F7E7F7F8080807F7E7E7F7F808063
:10298000807F7F7F7F80807F7E7E7F7F8081807F52
:102990007E7E7F7F7F7F7F80807F7F7F7F7F7F7F47
:1029A0007F8080807F7F7E7E7E7E7F808080807F34
:1029B0007E7F7F7F807F817B87837A7D7D807E8025
:1029C00081807F7D7E7F7E7F7E7F7F7E7F7F7F7F1A
:1029D0007F7F7F7E7E7E7F7E7E7E7E7F807F807E0D
:1029E0009AAB639ABA1C7DBE6B9ADB7A5B7C917959
:1029F0004B869A6B5089947174938A737E87827325
:102A00008181777780807F8080807E7D7D7C7B7AEE
:102A10007C7C7D7D7B7D807F7A7B7E7D746F897001
:102A2000666491855F00A0A86C887E433468A985A0
:102A3000715772839986746B848C907A767E8781C5
:102A400083798083827F82807D78797F7A78787EAF
:102A50007D7A797E837E76777E82837C797E817DA6
:102A600079787F807C7A7C7C7F807E7A7A7C7B79A7
:102A70007B7E7C7E7E7B7B7C7F7D7B7C7C7B797997
:102A80007C7D7F807B797E7D7A7B7E7E7A7B7D7D7F
:102A90007D7D7E7D7F807D7C7D7D7C7C7E7F7B7C63
:102AA0007C7C7E817E797A7E7D7E7D7F807F817F4A
:102AB0007C7D7E7F7F7B7D7E807F7E7E7E7E7E7E38
:102AC0007F7E7E7F7F7E7E7D7E7F7F7D7E7E7E8021
:102AD00080817D7D7F81807E7E7F7F7F7F7F7F8005
:102AE0007F7F7E7F7F7F7F7F80807F8080808080F0
:102AF0007E7E7F807F7E7E80807F7E7E7F808080E6
:102B0000807F7F7F7F7F7F7F808080807F80807FCE
:102B10007F7F7F7F81807F7F7F7F7F7F7F808080BF
:102B2000808081808080807F7F7F81807E7F8080A9
:102B30008080808080807F7F807F7F7F7F8080809B
:102B40007F7F7F80807F7F8080808080808080808A
:102B50007F7F807F7F8080807F7F80807F7F7F7F7F
:102B60007F807F7F8080807F7F7F80807F7F80806D
:102B70007F7F807F7F7F7F7F7F7F7F80807F7F7F62
:102B80007F7F807F7F7F7F7F7F7F7F7F7F7F807F53
:102B90007F7F7F7F7F7F7F7F7F7F7F7F7F7F7F7F45
:102BA0007F7F7F7F7F7F7F7F7F7F7F7E7F7F7F7F36
:102BB0007F7F7F7E7F7F7F7E7F7F7F7E7F7F7F7F28
:102BC0007E7E7F7F7F7F7F7F7F7E7F7F7F7F7F7F18
:102BD0007E7F7F7F7F7E7F7F7F7F7F7E7F7F7F7F08
:102BE0007F7F7F7E7E7F7F7F7F7F7F7E7F7F7E7FF9
:102BF0007F7F7F7F7F7E7F7F7F7F7E7F7F7E7E7FE9
:102C00007F7F7F7F7F7E7E7F7F7F7F7F7F7F7E7FD7
:102C10007F7F7F7F7E7E7F7F7F7F7F7F7F7F7F7FC6
:102C20007F7F7F7F7F7F7F7F7E7E7E7F7F7E7F7FB8
:102C30007F7F7F7F7F7F7F7E7F7F7F7F7F7F7F7FA5
:102C40007F7E7F7F7F7F7F7F7F7F7F7F7F7F7F7F95
:102C50007F7F7F7F7F7F7F7F7F7F7F7F7E7F7F7F85
:102C60007F7F7F7F7F7F7F7F7F7F7F7F7F7F7F7F74
:102C70007F7F7F7F7F7F7F7F7F7F7F7F7F7F7F7F64
:102C80007F7F7F7F7F7F7F7F7F7E7F7F7F7F7F7F55
:102C90007F7F7F7F7F7F7F7F7F7F7F7F7F7F7F7F44
:102CA0007F7F7F7F7F7F7F7F7F7F7F7F7F7F7F7F34
:102CB0007F7F7F7F7F7F7F7F7F7E7F7F7F7F7E7F26
:102CC0007F7F7F7F7F7F7F7F7F7F7F7F7F7F7E7F15
:102CD0007F7F7F7E7E7F7F7E7F807F7E807F7E7F07
:102CE0007F807E7F7F7C80807D808080807C807EF6
:102CF0007E7F7C817F7B827E817E7F7E7782847CEB
:102D0000807D7E83808380737F8081807A7B8581D4
:102D1000868679777A808678767D7B8B8E817C76C5
:102D200075837C80837376808C978E7D7A726B7CC2
:102D300084857F72747A94B09376615E6C748E9899
:102D40007F826B6896D299765A4D476194BA939474
:102D5000826375AEDB9849365A2176E6C78D8F6C53
:102D6000AC0BF8FE5E22134D8E0CD5F7677AAD7270
:102D7000AC2AF4E9581525CEA920CFEC4788E12BE1
:102D800096CE28D4DF2340D6441E30DB9B7DDC4C1E
:102D900048DABE3AB0953A954443702EA38FD2D606
:102DA000407FD9A0952E46AB79617A36736CD8D91D
:102DB000D56180CCD5823A38AAC463463781C849E8
:102DC00077CABC69B995843B388641B45C50C0BEB3
:102DD000549A4AC0BC4D69B54D5F5B7C777256AB67
:102DE000B7756F8BB34965B363859F47718D706B02
:102DF000AE4968B295807DB29854B4B1538BA95E48
:102E00009D5454A887504BA5A4588BA7694E849C09
:102E100052837F6F5B5585AB92705A8DA9A48179DF
:102E2000564F586772949EAC71759E9B887452562B
:102E30005AA2A16E635B678D88909AA57F867C609D
:102E40006D8D77698789A3A66796875F635B9FA16E
:102E5000707979647772A18692A584728F92868345
:102E6000605E9A627B7D8A9F9D759B9E9C82786541
:102E7000858B678F6B646C9E9B7268A2A18E7E6649
:102E8000819E977C64787F8996756780958188900C
:102E90006A9E9F9E866F6B9E99836C75877C8671F8
:102EA000926894956C90696B9999847E846B9A93DF
:102EB000766D81806A90826C889568677C856E9952
:102EC0009C8A807E69948A816A8D816C8D756994F3
:102ED000946C69768E968F959783747189897286C2
:102EE000886E6576757E7A7D8E6D768E7E6A8E941E
:102EF0006B698D77846F787C7B6C6689856A8B8E35
:102F00007876867072618F90616D86777B7C777F33
:102F10006D7E797064658A8A666B8B847F73837F2C
:102F2000737B797C836F8378716D727F7B65878714
:102F300065798E7B6D67886772836977767078862E
:102F400079756B7A85648283657E815E63698F861D
:102F50007068697E877188757A6F73816A7B8976FC
:102F60006E76786A75708C79797789787C707988D3
:102F700079647A76627F6E8E826E767C6C79648CF0
:102F8000877C7E8D6767778F688377677C917E68A3
:102F90006B7D8283786A738282827A826F7B7F8381
:102FA000787A6F82708394707C7F75898466806B79
:102FB0008B7F7D7E796F8D847378797C778E798A2B
:102FC0007A7F737A93856C82698785737A6F848739
:102FD0007472777D7E678C87777E94737D89897123
:102FE000746A838E6B697D76848384787A78807D39
:102FF000837A7C918382897878746C7A7F7565781E
:1030000089897D848969737F7C907669938F777ACB
:103010007481797381797564727E798E8882656A2C
:10302000808B747A71848E887766708C78786C6403
:103030007776728B79817D7E6F7381896B707A81EF
:10304000857E676E82797B72666981677F8A826A14
:10305000767B697B7F687C846E8A90616086807AEB
:103060006E666D87636B7B6C857A81676676856734
:103070008677788C7E6171718F6F5F67737B6A660C
:103080007C6E7B7E7E636D7E7F6B76738783696FDC
:1030900074807A67686C6A7560708985647A76581E
:1030A000747D61857B62827F65657B856969696BFB
:1030B0007E615C766C817777605F777C617E75710D
:1030C0008586646173896962606A805B67815D81FE
:1030D00080815F677A87687570818772607C767C93
:1030E0007065606D6E616F887A6A797757777B6CEF
:1030F0007F79648B8F5F628086706A666D756959AF
:1031000072758E6E7A665A7B8A5F86786F908B5C5A
:1031100067778E716060757C5C60865F8B7D836095
:10312000648790617A758A9372607B718A725E5E41
:10313000707B5C6E92727281795B757F777B7A6D42
:1031400094925F5D88947B69626B7469597B869504
:10315000697D6C5C858B5E88787097935E688093E0
:103160007763617C7B5F5E8A619279836762899510
:103170005F877786977F657C7598745E5D7D7D5BE4
:1031800068996581837D63748285767B729B9A657D
:10319000608D8A806F5F6975765D7A93966C8370B7
:1031A0005F888865887971999A60608D9B7C676576
:1031B0007C74645D8D72976B7E6F62919A62887D7C
:1031C000829A9062767A9C7B5D61857E5E6499636B
:1031D0009480816E6E85936D837B9A9B6E658D7CEA
:1031E0008E7561657A7F60719C8272857568858550
:1031F0006C847D729C9C615F969B80686079756F22
:10320000618B889965826F618F99638B7D799A98BC
:103210006369859F7D6664867A5C5B98679B757F32
:1032200071698C9C63857D909F8564867C997863A9
:10323000687F81616A9D6D82857E6F7D8A807683DD
:10324000789E9D635F9C8F876E6075757564839AA9
:1032500098608375618896658881749F9D625E948D
:10326000A27D67627F75615E98759A628272668AD6
:103270009C618C8181A098627580A278666D827E47
:103280005C5F9F67937B836F738C9766837B9E9E47
:1032900074618F8490726571787D6678A0896F857E
:1032A0007C698092728584709EA1625B999C7D6A24
:1032B000637D76656192919A5A817664879B5F8D72
:1032C0008578A09D62698EA27967697E7C5C5A9D33
:1032D0006A9D69836E6C8B9D608C8091A18D6180ED
:1032E000819E766876797D5C6AA274827E856B7930
:1032F000908A758674A1A16460948D846D677E74D4
:103300006D6388A39D5D7E7B6781976089886E9ED3
:103310009F636498A57A6564807A5B5C99759D6209
:1033200083706689A05F8E8480A29B617288A47777
:103330006870777B5B65A2648E75886B718D98640D
:10334000867C9FA3796087858F6F698374746079A9
:10335000A59A6B7981687E947185816DA1A2616364
:1033600097A17D676489775D6193859D637E7663B0
:10337000839B609088729F9F636E8FA477696C7D3A
:103380007C595EA166976E836D6E8C9B628A839179
:10339000A48C5F7C83986F687F74755D71A7907A49
:1033A0007482637A9477838271A2A260638D9B8119
:1033B0006A678C79615F8B84A06D7477627F9A6095
:1033C0008F806BA0A2616F8DA67B676C857F585F35
:1033D0009F679A7880686F939073917E88A28B64C0
:1033E0007A869772627D7B745B729BA981687C5937
:1033F0007D99648F826699A2676D839E8071698AC8
:10340000885B5B8669A3907468628F907690747312
:10341000A29D6978879976657B847F5B697CA99397
:103420006C795777985E9B83648AA280777E9C85AF
:10343000775D819D66577D8E999F77645B917795C7
:103440009A6E74A48F7C72938F7262867D8E5B6499
:103450005DA6A48A6F587E87789C776F8D9B917A42
:10346000808D7E765D809F785A5E92A4A07B655E9B
:10347000846C9A9367829989896F968F76617B862F
:103480009C5C568A929E97695F777089977C7D8055
:103490008F8C74958E78697188887D5A8382A19CFF
:1034A00079696E6E8C2A0067E2E6B357454456A5EB
:1034B000E5D1A44D1A16295BAFD5F9EDBD8E532287
:1034C000121F4170ADDFEDEFD0AA8B6C4728252A83
:1034D000325974A2C7D5DFD8C0B79E7E5B5F4C4A15
:1034E0004B424E747A93AED3CFCFD7C7C0A290735E
:1034F00072634655474240464E636C82A0A69CB01C
:10350000B7B3A9B1ABAE9192907D655C5D5D4D5452
:103510005047555C6C777A7E909996A4B39EACB276
:10352000A7B2ABA8959D8C7A79735D6B536A685F7F
:1035300050675C6865766C68838C90989A9AA39CB7
:1035400094ADA299A4A399A58C8C9C8D7A8B796F4C
:103550006A6A626D645C6868616A636376786F7BCF
:103560007980878A8A8A90959A989D9B9F9F9EA131
:10357000A1A29F9495928E8B8284817A7D786D6DC5
:103580007069706B676868696F6A716F6C72797661
:103590007C7F8187898A8E8E919494979C9A999941
:1035A000999E9A9B96929695918D8C8B8885837F18
:1035B0007F7B78757975726F706E706F736C6D70DC
:1035C000707277727876787B7E7D84808286898738
:1035D0008A8C8E8D91918F919394939493919290E4
:1035E0009190908B8B8889888782807F7B7D7A7988
:1035F0007977777372737273737372737273737391
:1036000075737778787A7B7C7C7F7F8182828586F0
:1036100087888A898A8B8D8D8D8E8E8D8D8E8D8DEE
:103620008C8C8B8A898A88868585848282807F7D3E
:103630007D7C797A7A77777475747474727172712B
:1036400072717271737373747575767778797A7B2A
:103650007C7D7E80818182838485868787898A8A32
:103660008B8B8C8D8C8C8D8D8D8C8C8C8B8B8B8B9C
:1036700089888887868584838280807E7D7C7B7A2A
:103680007978777675747473737272717070707004
:103690007070717070707172727373747576777800
:1036A000797A7B7C7D7E7F80818283848586878812
:1036B00088898A8A8B8C8C8C8C8C8C8D8D8C8C8C54
:1036C0008C8B8B8A8A8A8988878786858483828186
:1036D000807F7E7D7C7C7A79787777767575747358
:1036E00073727271717171717170717171727272C4
:1036F000737374747576767778797A7B7B7C7D7E4C
:103700007F808182828384858687878889898A8A67
:103710008B8B8B8B8C8C8C8C8C8C8C8B8B8B8B8BF2
:103720008A8A89898888878786858483838281803D
:103730007F7F7E7E7D7C7C7B7A7A797978777776DD
:10374000767675757575747474747475757575762B
:103750007676767777787879797A7B7C7C7D7D7ED2
:103760007F7F808181828283838485858686878727
:1037700087888889898989898989898A898A8989BB
:1037800089898988888888878786868585848483CF
:103790008382828181807F7F7E7E7D7D7C7C7B7B3E
:1037A0007B7B7A7A7A79797978787878787878788A
:1037B0007878787878787879797979797A7A7A7B7B
:1037C0007B7C7C7D7D7E7E7E7E7F7F808081818113
:1037D00082828383838484858484858586868686A5
:1037E0008686868687868787868686868685858579
:1037F000858484848483838383828282828181809E
:10380000807F7F7F7F7F7E7E7D7D7D7C7C7C7C7CDE
:103810007C7B7B7B7A7A7A7A7B7B7A7A7A7A7A7B00
:103820007B7B7B7A7B7B7B7B7B7B7C7C7D7D7D7DDF
:103830007D7D7E7E7E7F7F7F808080808081818194
:103840008282828282838383838383838484848449
:10385000848484848484848484848484838383832C
:10386000838383838282828281818181818080803F
:10387000807F7F7F7F7F7E7E7E7E7E7E7D7D7D7D65
:103880007D7D7C7C7C7C7C7C7C7C7C7C7C7CCEE6BA
:10389000B581390705042D77C6C9A6A6B6A99A929F
:1038A000695B5863718FC6D6C4A7A093837F808558
:1038B0008F94A1A0AEB99C744547454F6279868A22
:1038C0007A6D535B5E636C78887473616F707C8211
:1038D0009BB9D0AC70460007064276B3B9BBA2953F
:1038E000978A6F4F484B6D9FC4CDCFA99376787957
:1038F0008D8E8B8D9EB3BDA28A6D586B60828B902E
:103900007C786B7378717673716B6B607D8BAFB401
:10391000BD8C6A2E131A25627EA6A3A6978F797492
:103920005E5F535C7B9DB8B9A38F84767B7B8E9161
:103930009B8D9C939889837C818181888286758404
:1039400077867D8079828FA9AF9882542F2B35524C
:103950007995A190968985756F5B59506584A9B753
:10396000B0A184785A64667F8B92989D9DA0928CBA
:103970007A7772757F7F8B827F8091A1A8968A600B
:10398000524449637E93929288837D766D685D642C
:1039900072889B9E9A8F7E6D696F798288878E87E9
:1039A0008C898786857E7B7D8483868791A19A9486
:1039B00083645C4E556A7D9291988A887E7675679D
:1039C00065697485969C98897C6C6B6A75858B900B
:1039D0008C8A85868580827F7E7E7D7E8A989E9673
:1039E0008C71645E5B6C778B8A8D8B86877F776D3D
:1039F000676D778494969387786C696F77878C8FDF
:103A00008E868381807F777B7B7E818B9B9A91865C
:103A10006B655C60737F8F898F85868379746A6537
:103A20006D778B989B958376696D7079868B8B8A81
:103A30008784807F7A777B7A7D869999918C746E62
:103A40006060717489898D89838078746F6F737BEE
:103A500086918F908277706B75788689898883814B
:103A60007F7D7D7D7D7E808D94918E7D6E69636C82
:103A700075888A898A7F807B7972707278858D9249
:103A80008C8375706C737C868A878883817D7E7B4E
:103A90007C7C7D85948E9086716F636C7385888C39
:103AA0008D83817D7676707077818A8F90857C7228
:103AB0006E737C848B868780837E807D7C7E7D8810
:103AC000918D8D82717066727689878B8B808178FB
:103AD000787576767F828A8A877F7773737A818812
:103AE0008A8884807D7D7E7F7E80848E8E8E8A769D
:103AF00074696D7681898B8A83817D777878737C10
:103B00007F888B8B847C7673777E84888884847EA0
:103B10007F7B7E7E7E83908C8C8B74766A6E7982BE
:103B20008B8B8C808079767778767D7F898A8A8383
:103B30007C77747980868785827E7C7F7E81818296
:103B40008490878C826E7469747C8D8B8B897C7970
:103B5000787378767A80848B88897B7A74747A819A
:103B600087878784807B7D7D7E7E81898F898D7B21
:103B700074716E787B8B8689837C7C787879797A8E
:103B80007E858685847B7874797E848887847E7C34
:103B90007A7B7F7F81848E8E898975756B6C778047
:103BA0008C898B857C7D797577787F7F8586857F0D
:103BB0007978757B84858683817E7A7E7F8080811B
:103BC000868F878B8170726A747D8C8B88867B77F9
:103BD000777779797C8382898383787375767F861A
:103BE0008988827E79787A7B81818A928C8B8570B4
:103BF0007168707A899089887D7B747674757C8110
:103C0000878A89847C7273757E82888680807B7BBC
:103C10007B7C7F81828F8E888976706B6E78838FB4
:103C2000878A827A787775797C81848788817D75A7
:103C300073787C83858482807D7D7D7D8080818991
:103C400090878B7A706E6C797E9088888178777790
:103C5000797A7B83838886817D7572737D8388887A
:103C600085817E797C7B7F817F89938A8B7E6D6E57
:103C70006A777D8E8A8A84797B7579787A7B848964
:103C800089827E7472757A83878883807C7C7A7C53
:103C900080808089938B8C806F6F69737B898E871E
:103CA000867D7876797A7A7D808587858079747546
:103CB00079808589867E7E787A7D80828685928DE0
:103CC00086856F6E67717B87918C887E7A75747636
:103CD000797C83858D8781797371757D83888B83EA
:103CE000817C7B7A7C8180858C93898A776E6A69F6
:103CF000767F908B8C857D787A7676787D818988C1
:103D0000837F7575757C81878783817E7B7D8080CD
:103D10008181868F89857F706F6D767E8A8E87849C
:103D20007C7A7578797A7F848889807E7773747AD3
:103D300080858988837F7C7A787B7F81848C918A57
:103D4000877A6E6C6B777F8D8A88837B7C757677BC
:103D5000787E858B8A847E7472757B828789848263
:103D60007F7C7C797C7F808590938685726A6B6F7F
:103D70007981918785827D787A76727880848A8845
:103D800080777375778187868581817E7B7E7E7E55
:103D900080858A94888674686C6C797F9085858428
:103DA0007F7B7A766F757E858A887F7873747A8157
:103DB00083858381807E7C7D7B7E81848D938884D6
:103DC00075696D6D797D8C8788837F7C78756E745D
:103DD0007D858B8A837B7776757C82838483817FE4
:103DE0007E7B7C7D7E828B938A897C6D706B757AFD
:103DF0008684868483837A76707476838988827ECB
:103E000079797D7E80808381837F7F7F7D7E8283C1
:103E10008F95898775706C70777A868387868680A0
:103E20007671717681878A847F7A797A7B7C8182C8
:103E3000858883817E7B7C82828E978B897A6E6F68
:103E40006E7879828389878886787370737E878895
:103E5000867F7D7B7A7C7E7D81868486807C7A7E6F
:103E600081818B969189836C736B737A7C85868A4A
:103E7000888B7D767272788284858580827E7D7D56
:103E80007C7F858683857E7E7F81828491978C89E5
:103E90007770726E7B7581868A8B8A837875767669
:103EA0007F80848383887D7E7F7B7E8487858384F7
:103EB00080817F81858F998E8B7B73766E77727B05
:103EC000888C908D807B7579767E7F7F8288867ED8
:103ED0007F7B79828483858483807F8083879599A3
:103EE0008B8779777570736F7A878A8E8B847F79E9
:103EF0007A767A7B7D83878380817F7D817F7D80D9
:103F00008084828384838594958880797C75777595
:103F1000727A8385858683817F7E797A7C7D7E82B5
:103F200081818180807F807F807F80808080808091
:103F300080807F0000356882859FB3CCAF9EA8A3A8
:103F40008B6D584E4B3B2E3E53727E9FA4BFC7B124
:103F5000B2C0C7D9AE8F9C7C744A3C4342331C45E7
:103F6000666F78939FB6BBAFA7A38A6A5D4B564F27
:103F700048525F716F829AACB8B6A8B0B8BC9D8F3A
:103F80009589705651494D443B506D75838C9CA763
:103F9000A9A18E9E8C72645A5753555D647A8488A9
:103FA000979FA69FA5ACB8AC9295897D66515A564D
:103FB000574F5768747D808FA5A79D98948D7C6A14
:103FC0005D6665616664717E848C939FA09FA2A5E7
:103FD0009C8C8C83776C66665E5D55617376828A95
:103FE0009BA39D96918D816D6D67686261677380FB
:103FF0007C8794999B989CA399888A887C6E65623B
:1040000062665E65757D8387919D99928A8A8277C3
:104010006F676B68676A728184898D9094969A9CA9
:10402000918888827A6E6968676968707E838587FF
:104030009597928E898479716C6D6E6E6F757F80A5
:1040400084898E909398978B88857E756D6E6A7142
:104050007071757F82838C92938D8A837D75716D6B
:104060006F7073777E8484868A8A8D95938A88841C
:104070007F766E706E717072798289858B908E8971
:1040800082817E75706F7173747A7C8388878B8C64
:104090008E918D84857F7B7371726F7570767C8550
:1040A00086888E8F8C86817E7A72706F7477777B2C
:1040B00081868587898D948F8284827E72717473E4
:1040C0007773767D848383898E8B85817E7C757200
:1040D000707678777D83868486888B8F84838683C9
:1040E0007B7175747775747C848582848B89857DFA
:1040F0007B7D777372787B7A7E82868785868D88D2
:104100007F8180827775737879757A8089858486D6
:1041100088837F7979787573747C7C7F81848584CA
:10412000868B898081807F787677747A76787F87AE
:1041300088868788847E7877797676757B7F7F819D
:10414000828482838B897F817F7E7A7478767F7A7E
:104150007A80858782828686807A77797776757984
:10416000818082828486868A847E837F7C7576774E
:10417000777C797E858983828787817C787976745C
:1041800075787F82818385888C8A7E7E807F797432
:104190007A767C79787F8889858688827B7874793D
:1041A0007777777E85818282848C8D807E84827A07
:1041B0007276747B7A7A828A8A848389837E797420
:1041C000797677777D8384848385908B7C818080EA
:1041D00078767878807B7A818A89838288817A75FB
:1041E000737B797A7C81888382828C8C7E7E7F81CE
:1041F0007A737679807F7B838D8C858183807C75D3
:10420000737B7A7A797E868584878F8A7F7F7E81A9
:1042100078777477827C7C858B8A8381837F7C74BA
:1042200074797B7C80828885848F887F827E80758C
:10423000757576817B7E868A898682837E797573A1
:104240007A797C7E81848286908682827E80737871
:104250007478807B80888B88817F827A7775757C83
:104260007A7B808284828D8E7F857D807772777362
:10427000807F7D848B87867F81817977747A7D7A50
:104280007B7E80858D8C80847F817772797581803B
:104290007C818887847E7F807A78767B7F7D7E8034
:1042A00081868E857F857E8173777977837D7F8810
:1042B0008C84817C7E7B7575757F837D8184858F01
:1042C000877B827F8274717A7782807E888E8781F5
:1042D0007D7F7E73737479837E7E838892897B83EE
:1042E000808373707778817C7F889086817F8081DE
:1042F0007474787C7E7C7C838B94877E85817F6FD1
:10430000747679837F818B8F857F7D7E7B747579D1
:1043100081817D7D84938C7D8380827471777983A4
:10432000847F8892897F7D7B7A73727A8083808094
:104330008A948C7C817C81726E797C8583838A905F
:104340008A7F7D7B79747077818082848F95898163
:104350007F7D7C6E6F757F8482869092857C797B71
:104360007972717A837F8086968F85807C81746F65
:1043700071798483828C948D81797B777270757E5C
:10438000818488949386827C7C736D71757E82852E
:104390008A928F85817D777473727B7D81889591F8
:1043A00087877D7E746E71778081868B928B847E09
:1043B0007B787472747C7D808C968D89847C7E7110
:1043C0006E71797F83868B938B827E7C747272761A
:1043D0007C7F87939488897E7C766B6E747E8186E1
:1043E0008B9290867F7B77747170787D7E8A958DB5
:1043F0008C877C7E726E70797C81868C908B847CBD
:104400007B757272767D7E849490898A7D7D746ED0
:104410006D747C7D8489918D877F7C797272737BCA
:104420007D809092878A807C7A6E6E737C7D848892
:10443000918F87807978716F71767D808D948A8B6A
:10444000857C7C706D6E797C82858C908B837B7B88
:10445000737071757C7F89948C8B867B7D716E6E99
:10446000777D7F858C908C847B7B767070747B7D70
:1044700085948E8B8B7D7D736C6C757C7F888B9126
:104480008D867E7A75707274787C839391898D8025
:104490007F776D6D717B7A84898F8D87827B78724F
:1044A0006F72797C809192888D817D786D6D717A43
:1044B0007A848A908F87827C79727171797D7E8D02
:1044C00092878B827D7D6F6E707A7B82888E9088DA
:1044D000827B78727070767E7E8B968C8A867B7BF0
:1044E000706D6F7A7D80868D9189837C7B7570710C
:1044F000767E7D8395918A8A7C7C766D6D747E7DD7
:10450000858A938D857E7B7A7271717A7E808D9596
:104510008B8A817B796E6F717A7E82889091898295
:104520007B79747072777D7D849692888A7F7C77A0
:104530006D6D757F7E858B928D837E7A79717276B3
:104540007C807F8B968C85847B7D726C6F7B7F7F7C
:10455000878E9288817B7B76707378807F8393953A
:1045600086887E7F012302230423082380230129D8
:104570000229042908294026802640298029102361
:1045800020234023802F402F202F102F022F012F78
:1045900010292029402C7DFD7DFB7DF77DEF7DDFFF
:1045A0007E7F7EBF7EDF7EEF7EFD7EFE7DFE000194
:1045B000040506070D0C0B0A09080A0B0C0D07066B
:1045C000050401000800010000FB45120002000084
:1045D0000D4673002201008046210021010069463A
:1045E0000900030000A1460401030904A5460E01C9
:1045F000C13601C026018136018036120100020059
:10460000000040C116860400010001000109027388
:1046100000020100C032090400000201030000078B
:1046200024010001410006240201010006240202C7
:10463000020009240301030102010009240302040A
:1046400001010100090504024000000000052501E8
:104650000101090583024000000000052501010356
:1046600009040100020300000009211101000122D8
:104670002100070581034000010705020320000215
:1046800006C9FF0904A15C7508150026FF009540C6
:104690000975810295200976910295040976B10287
:1046A000C0040309040E03470065006E004D00447A
:1046B000004D00000000943711241FBECFEFDAE058
:1046C000DEBFCDBF15E0A0E0B1E0E0E6F8E702C054
:1046D00005900D92A031B107D9F716E0A0E1B5E041
:1046E00001C01D92A632B107E1F716E4C8EBD6E48B
:1046F00004C02297FE010E94F33BC63BD107C9F7D5
:104700000E949C350C942E3C0C940000A0E0B0E07C
:10471000ECE8F3E20C94FF3BEC01A880B980CA807E
:10472000DB80A114B104C104D10441F484E2A82EB9
:1047300089EDB82E8BE5C82E87E0D82EC601B501CD
:104740002DE133EF41E050E00E94D63B27EA31E40F
:1047500040E050E00E94623B7B018C01C601B50144
:104760002DE133EF41E050E00E94D63BCA01B90190
:104770002CEE34EF4FEF5FEF0E94623B6E0D7F1D1A
:10478000801F911F97FF04C0615070408040904887
:10479000688379838A839B839B01AC015F77B9012E
:1047A000CA01CDB7DEB7EAE00C941B3CAFCF80E086
:1047B00091E0ACCF609300017093010180930201FE
:1047C0009093030108950F931F93CF93DF9385B9BF
:1047D00090910601C92FD0E0FE010E9436329091DF
:1047E0000A01692F70E0FB010E943632E091080156
:1047F0000E2F10E09801F9010E943032209104013F
:1048000030910501D901129738F031F0AA0FBB1F82
:10481000AA0FBB1F1197F1F7A801FA010E943632C7
:10482000D901129738F031F0AA0FBB1FAA0FBB1F96
:104830001197F1F790E044E0959587954A95E1F757
:1048400085B9CE01FC010E943032CB01FC010E94EF
:104850003632C801FC010E943032C901029738F09B
:1048600031F0880F991F880F991F0197F1F7C80140
:10487000FC010E943632C901029738F031F0880FEE
:10488000991F880F991F0197F1F78CE085B9CE0128
:10489000FC010E943032CB01FC010E943032C80181
:1048A000FC010E943032C901029738F031F0880FC4
:1048B000991F880F991F0197F1F7F8010E9436326E
:1048C000C901029738F031F0880F991F880F991F9E
:1048D0000197F1F7C901029738F031F0880F991F5D
:1048E000880F991F0197F1F7C901029738F031F04D
:1048F000880F991F880F991F0197F1F7DF91CF91CA
:104900001F910F910895462FA62FB0E0FD01E951A8
:10491000FB4F908120E430E0291B3109E82FF0E0C3
:10492000AA0FBB1FA552BB4F8D919C9165E070E013
:104930000E94A13B8091B1059091B205E80FF91F4B
:10494000E60FF71FEE0FFF1FE35EFC4F80819181A2
:10495000280F391F3093AE052093AD0537FF05C0F2
:104960001092AE051092AD0509C02050344034F0CD
:104970008FEF93E09093AE058093AD058091AD05E8
:104980009091AE0560E170E00E94A13B8093AF057D
:1049900080584295440F407E840F8093AC0513DF0E
:1049A0008091AD059091AE0554E0959587955A9507
:1049B000E1F78093B00507CF6295660F607E615680
:1049C000869586958695681B6093AC05862FFBCEF1
:1049D000CF93DF93982F742F80911005891709F4D6
:1049E0006CC090931005992311F48DE004C09130B0
:1049F00009F063C08EE085B9209104013091050172
:104A0000C901029738F031F0880F991F880F991F5C
:104A10000197F1F780910601E82FF0E00E94303213
:104A2000C901029738F031F0880F991F880F991F3C
:104A30000197F1F780910A01E82FF0E00E943032EF
:104A4000C901029738F031F0880F991F880F991F1C
:104A50000197F1F7E0910801AE2FB0E0CD01FC0124
:104A60000E943032C901029738F031F0880F991F47
:104A7000880F991F0197F1F7C901029738F031F0BB
:104A8000880F991F880F991F0197F1F7FD010E9468
:104A90003632C901029738F031F0880F991F880F1C
:104AA000991F0197F1F7C901029738F031F0880F8B
:104AB000991F880F991F0197F1F7872F8F7085B97C
:104AC00080910601482F50E0FA010E943632809111
:104AD0000A01A82FB0E0FD010E943632E0910801E2
:104AE000CE2FD0E0CE01FC010E9430322091040193
:104AF00030910501C901029738F031F0880F991FF4
:104B0000880F991F0197F1F7CE01FC010E94363200
:104B1000C901029738F031F0880F991F880F991F4B
:104B20000197F1F772957F7075B9CA01FC010E9477
:104B30003032CD01FC010E943632CE01FC010E94D0
:104B40003032C901029738F031F0880F991F880F71
:104B5000991F0197F1F7CE01FC010E943632C9017D
:104B6000029738F031F0880F991F880F991F01972D
:104B7000F1F7862F8F7085B9CA01FC010E94363289
:104B8000CD01FC010E943032CE01FC010E94303286
:104B9000C901029738F031F0880F991F880F991FCB
:104BA0000197F1F7CE01FC010E943632C90102974C
:104BB00038F031F0880F991F880F991F0197F1F78E
:104BC00062956F7065B9CA01FC010E943032CD0157
:104BD000FC010E943032CE01FC010E943032C9013A
:104BE000029738F031F0880F991F880F991F0197AD
:104BF000F1F7FE010E943632C901029738F031F018
:104C0000880F991F880F991F0197F1F7DF91CF91B6
:104C10000895CF92DF92EF92FF920F931F93DF934D
:104C2000CF9300D0CDB7DEB7182F042F863008F011
:104C300055C5862F84568E3038F4E62FF0E0E152C9
:104C4000FF4F802F880F8083862F90E0FC013197E3
:104C5000E136F10508F060C5EA5AFF4FEE0FFF1F7D
:104C60000590F491E02D0994000F80E06AE2402F56
:104C70006CC0C12EDD24F601E759FE4F0083F6011A
:104C8000EA55FA4F8081089FC00111246FE770E058
:104C90000E94A13B262F60931405812F63E00E94A0
:104CA000813BE82E812F0E94813BF92E80E4F80E93
:104CB000F601EF5AFE4F8081289FC001112461E860
:104CC0007FEF0E94A13B462F41588E2D6F2D80DE35
:104CD00094E0F90EF601E95AFE4F90818091140597
:104CE000989FC001112461E87FEF0E94A13B462FED
:104CF00041588E2D6F2D6CDEA4E0FA0EF601E35ABA
:104D0000FE4F908180911405989FC001112461E8A5
:104D10007FEF0E94A13B462F41588E2D6F2D58DE0C
:104D2000B4E0FB0EE3E6F1E0CE0EDF1ED6019C916F
:104D300080911405989FC001112461E87FEF0E94C3
:104D4000A13B462F41588E2D6F2D42DEE5C4A12F89
:104D5000B0E0402F50E004E0559547950A95E1F703
:104D6000FD01E056FA4F40834863AD5CBA4F8C9129
:104D7000876048234C9317C0E12FF0E0ED5CFA4FB9
:104D800040814863802F90E0B4E095958795BA956F
:104D9000E1F7A3E0880F991FAA95E1F78760809358
:104DA00015054823408363E0812F0E94813B905585
:104DB000692FCBCFA12FB0E0FD01EF5AFE4F00834A
:104DC000812F63E00E94813B382F812F0E94813B1D
:104DD000292F205C32C0A12FB0E0FD01E95AFE4F1F
:104DE0000083812F63E00E94813B382F812F0E9436
:104DF000813B292F2C5B21C0A12FB0E0FD01E35A9C
:104E0000FE4F0083812F63E00E94813B382F812F6A
:104E10000E94813B292F285B10C0A12FB0E0FD012B
:104E2000ED59FE4F0083812F63E00E94813B382FB4
:104E3000812F0E94813B292F245BAA55BA4F8C9168
:104E4000089FC001112461E87FEF0E94A13B462F1B
:104E50004158832F622F79CFE12FF0E0E15CFA4FC8
:104E600040814F60802F86958695869580672CC0FF
:104E7000E12FF0E0EB5BFA4F40814F60802F869589
:104E800086958695806732C0E12FF0E0E55BFA4FAA
:104E900040814F60802F869586958695806738C0C3
:104EA000E12FF0E0EF5AFA4F40814F60802F869556
:104EB0008695869580673EC0E12FF0E0E15CFA4F71
:104EC00040814067802F8F60809315054823408381
:104ED00063E0812F0E94813B905D6ACFE12FF0E07B
:104EE000EB5BFA4F40814067802F8F608093150500
:104EF0004823408363E0812F0E94813B9C5C58CF14
:104F0000E12FF0E0E55BFA4F40814067802F8F6032
:104F1000809315054823408363E0812F0E94813BE5
:104F2000985C46CFE12FF0E0EF5AFA4F408140679E
:104F3000802F8F60809315054823408363E0812F85
:104F40000E94813B945C34CFE12FF0E0E95AFA4FA4
:104F50004081406C802F880F8F6128C0E12FF0E0E6
:104F6000E35AFA4F4081406C802F880F8F6132C026
:104F7000E12FF0E0ED59FA4F4081406C802F880F0F
:104F80008F613CC0E12FF0E0E759FA4F4081406C5F
:104F9000802F880F8F6146C0E12FF0E0E95AFA4F69
:104FA00040814F61802F86958695806C8093150592
:104FB0004823408363E0812F0E94813B905BF8CEC1
:104FC000E12FF0E0E35AFA4F40814F61802F869540
:104FD0008695806C809315054823408363E0812F7C
:104FE0000E94813B9C5AE4CEE12FF0E0ED59FA4F4C
:104FF00040814F61802F86958695806C8093150542
:105000004823408363E0812F0E94813B985AD0CE91
:10501000E12FF0E0E759FA4F40814F61802F8695EC
:105020008695806C809315054823408363E0812F2B
:105030000E94813B945ABCCEE12FF0E0E159FA4F37
:1050400040814068802F880F8F6128C0E12FF0E0F9
:10505000EB58FA4F40814068802F880F8F6132C033
:10506000E12FF0E0E558FA4F40814068802F880F2B
:105070008F613CC0E12FF0E0EF57FA4F408140686C
:10508000802F880F8F6146C0E12FF0E0E159FA4F81
:1050900040814F61802F86958695806880931505A5
:1050A0004823408363E0812F0E94813B905A80CE49
:1050B000E12FF0E0EB58FA4F40814F61802F869549
:1050C00086958068809315054823408363E0812F8F
:1050D0000E94813B9C596CCEE12FF0E0E558FA4FDD
:1050E00040814F61802F8695869580688093150555
:1050F0004823408363E0812F0E94813B985958CE1A
:10510000E12FF0E0EF57FA4F40814F61802F8695F5
:1051100086958068809315054823408363E0812F3E
:105120000E94813B945944CE0093150563E0812F82
:105130000E94813B9059402F50E0E3E05595479500
:10514000EA95E1F735CEE12FF0E0E957FA4F4081DB
:10515000406F802F880F8F6029C0E12FF0E0E35768
:10516000FA4F4081406F802F880F8F6034C0E12F4D
:10517000F0E0ED56FA4F4081406F802F880F8F602E
:105180003FC0E12FF0E0E756FA4F4081406F802F9B
:10519000880F8F604AC0E12FF0E0E957FA4F408155
:1051A0004F60802F869586958695806F8093150534
:1051B0004823408363E0812F0E94813B9058F8CDC3
:1051C000E12FF0E0E357FA4F40814F60802F869542
:1051D00086958695806F809315054823408363E00C
:1051E000812F0E94813B9C57E3CDE12FF0E0ED56EB
:1051F000FA4F40814F60802F869586958695806F07
:10520000809315054823408363E0812F0E94813BF2
:105210009857CECDE12FF0E0E756FA4F40814F602E
:10522000802F869586958695806F809315054823F7
:10523000408363E0812F0E94813B9457B9CD409118
:1052400024054760802F806882958F7010C0409140
:1052500024054860802F90E076E0959587957A95B3
:10526000E1F763E0880F991F6A95E1F78760809303
:10527000150548234093240580E062E266CDE12FC6
:10528000F0E0E75CFA4F40814760802F82958F7095
:10529000886F27C0E12FF0E0E75CFA4F4081486358
:1052A000802F90E054E0959587955A95E1F733E08B
:1052B000880F991F3A95E1F7876C13C0E12FF0E052
:1052C000E75CFA4F4081406C802F90E025E0959597
:1052D00087952A95E1F706E0880F991F0A95E1F76F
:1052E0008F63809315054823408363E0812F0E94DC
:1052F000813B9C545DCD402F407C809132058F7B5B
:10530000482B4093320580E067E262DB812F90E01A
:10531000029763E070E00E94A13BFB01E154FA4F69
:10532000802F90E0B6E095958795BA95E1F7808358
:10533000F3C1402F440F80E06BE24ADB802F90E006
:10534000A6E095958795AA95E1F790932E05809311
:105350002D05E2C1802F62E10E94813B80930C0108
:1053600010920D01D9C1003428F088EB9EE1ADEC1C
:10537000B0E404C083E890ECA6EDB0E480931201A1
:1053800090931301A0931401B0931501C5C10F5F51
:1053900000931001C1C100931101BEC100932B0500
:1053A00010922C0500930E01B7C10695069506953F
:1053B0000F5F00931E01B0C102950695069503701C
:1053C0000F5F00930F01A8C140919F054860802F97
:1053D00090E0F6E095958795FA95E1F7E3E0880F80
:1053E000991FEA95E1F7876F07C040919F054760D5
:1053F000802F82958F70886F809315054823409386
:105400009F0580E060E9A1CC402F46958091320550
:10541000807C0FC0802F90E076E0959587957A95F7
:10542000E1F79695982F88279795879540913205B3
:105430004F77482B4093320580E067E286CC402FBF
:1054400046954695469580913005807F0FC0802F08
:1054500090E053E0959587955A95E1F744E0880FE1
:10546000991F4A95E1F7409130054F70482B4093C2
:10547000300580E060E269CC402F46954695469520
:1054800080913105807F0FC0802F90E033E09595AB
:1054900087953A95E1F724E0880F991F2A95E1F75F
:1054A000409131054F70482B4093310580E06CE20C
:1054B0004CCC069506950695E02FF0E0FA83E9833B
:1054C000E159FE4F812F6EE04081A3DBE981FA8133
:1054D000E158FE4F812F6FE040819BDBE981FA812B
:1054E000E157FE4F812F60E1408193DBE981FA8132
:1054F000E156FE4F812F61E140818BDBE981FA812A
:10550000E155FE4F812F62E1408183DBE981FA8121
:10551000E154FE4F812F63E140817BDBE981FA8119
:10552000E153FE4F812F64E1408173DBE981FA8111
:10553000E152FE4F812F65E140816BDBE981FA8109
:10554000E151FE4F812F66E1408163DBE981FA8101
:10555000E150FE4F812F67E140815BDBE981FA81F9
:10556000E15FFD4F812F68E1408153DBE981FA81E2
:10557000E15EFD4F812F69E140814BDBE981FA81DA
:10558000E15DFD4F812F6AE1408143DBE981FA81D2
:10559000E15CFD4F812F6BE140813BDBE981FA81CA
:1055A000E15BFD4F812F6BE2408133DBE981FA81C2
:1055B000E15AFD4F812F6CE240812BDBE981FA81BA
:1055C000E159FD4F812F6DE2408123DBE981FA81B2
:1055D000E158FD4F812F6EE240811BDBE981FA81AA
:1055E000E157FD4F812F6FE2408113DBE981FA81A2
:1055F000E156FD4F812F60E340810BDBE981FA81A9
:10560000E155FD4F812F61E3408103DBE981FA81A0
:10561000E154FD4F812F62E34081FBDAE981FA8199
:10562000E153FD4F812F63E34081F3DAE981FA8191
:10563000E152FD4F812F64E34081EBDAE981FA8189
:10564000E151FD4F812F65E34081E3DAE981FA8181
:10565000E150FD4F812F66E34081DBDAE981FA8179
:10566000E15FFC4F812F67E34081D3DAE981FA8162
:10567000E15EFC4F812F68E34081CBDAE981FA815A
:10568000E15DFC4F812F69E34081C3DAE981FA8152
:10569000E15CFC4F812F6AE34081BBDAE981FA814A
:1056A000E15BFC4F812F6BE34081B3DAE981FA8142
:1056B000E15AFC4F812F6CE34081ABDAE981FA813A
:1056C000E159FC4F812F6DE34081A3DA89819A81F2
:1056D00081589C4FDC010C916EE3ABCA865083303D
:1056E000D8F46A3279F4A12FB0E0FD01EE0FFF1F6C
:1056F000E552FB4F40831182AD54BA4F8C91612F1C
:1057000002D90AC06B3041F4E12FF0E0E754FA4FC0
:105710004083842F612F50D90F900F90CF91DF914C
:105720001F910F91FF90EF90DF90CF900895482F39
:10573000862F453059F480912D0590912E050197C3
:10574000A9F4109226051092250510C0463000F5E8
:10575000423061F48091BF05813021F44091C10550
:105760004F773EC080E068E242E03FC0842F63E0B4
:105770000E94813B282F30E0220F331F220F331F5E
:10578000842F0E94813B922B80E068E2492F2DC03C
:10579000642F6650633048F48D3238F0E62FF0E025
:1057A000E754FA4F108280E006C0493029F4109285
:1057B000BC0580E063E000C9842F8A508430F8F48F
:1057C0004A3039F04A30D8F04B3039F04C30B9F427
:1057D0000DC04091C105407B03C04091C105407E92
:1057E0004093C105426080E068E2F2C84091C10583
:1057F000407D4093C105426080E068E2E9C80895B9
:105800008091250590912605019709F024C180918A
:105810002D0590912E05019709F01DC120912905B4
:1058200030912A0580911F01909120012817390796
:1058300064F080911105882341F41092260510929E
:10584000250510922A051092290520911C013091FE
:105850001D0180912B0590912C052817390744F1E3
:1058600080911105813021F580911E01209129053B
:1058700030912A05280F311D30932A0520932905E0
:1058800010921D0110921C0160E071E080E090E038
:105890000E94B937462F50E00090130502C055957D
:1058A00047950A94E2F74093120580E06AE290D8A7
:1058B00020911C0130911D0180912B0590912C05A8
:1058C000281739070CF4B6C080911105823031F5E4
:1058D00020911E018091290590912A05820F911D2A
:1058E00090932A058093290510921D0110921C01A6
:1058F0006EE070E00E94A13BFC01ED5BFE4F408139
:1059000050E00090130502C0559547950A94E2F7C0
:105910004093120580E06AE25BD88CC0882309F0CE
:1059200089C010921D0110921C0180912705909151
:1059300028058131910508F06DC089549F4F409131
:10594000290550912A0520912F05FC01EE0FFF1F1C
:105950000590F491E02D09944E5E5D4FFA0144915B
:105960004FC04F57594FFA0144914AC04652574FC2
:10597000FA01449145C04B52564FFA01449140C040
:105980004A57514FFA0144913BC04D5B5E4EFA01BC
:10599000449136C040505C4EFA01449131C04D53A1
:1059A0005A4EFA0144912CC04C58554EFA0144917C
:1059B00027C04B5D504EFA01449122C04E5F5A4DB4
:1059C000FA0144911DC04D54564DFA01449118C03E
:1059D0004C52534DFA01449113C04B555B4CFA01A4
:1059E00044910EC04257574CFA01449109C04D5C96
:1059F000504CFA01449104C04D595A4BFA0144915C
:105A000050E002C0559547952A95E2F780E06AE29A
:105A10000E94E82420911E018091290590912A0579
:105A2000820F911D90932A058093290510921D01E4
:105A300010921C0120911C0130911D0180912B05B9
:105A400090912C052817390734F42F5F3F4F30937E
:105A50001D0120931C0108956F927F928F929F9257
:105A6000AF92BF92CF92DF92EF92FF920F931F936C
:105A7000782ECB019B01220F232F221F330B319550
:105A8000622E209317056FE770E00E948D3B809394
:105A9000160585E0871508F4B0C0E72DF0E0DF01BA
:105AA000AA5EBE4F2C93E85EFA4F80809090100162
:105AB000882D90E0692D70E00E948D3BAA2797FD0C
:105AC000A095BA2FBC01CD010E940C395B016C017D
:105AD00060910C0170910D01882777FD8095982FBA
